{
  "_format": "hh-sol-artifact-1",
  "contractName": "SimpleAccountDeployer",
  "sourceName": "contracts/SimpleAccountDeployer.sol",
  "abi": [
    {
      "inputs": [
        {
          "internalType": "address",
          "name": "owner",
          "type": "address"
        },
        {
          "internalType": "uint256",
          "name": "salt",
          "type": "uint256"
        }
      ],
      "name": "deployAccount",
      "outputs": [
        {
          "internalType": "address",
          "name": "",
          "type": "address"
        }
      ],
      "stateMutability": "nonpayable",
      "type": "function"
    },
    {
      "inputs": [
        {
          "internalType": "address",
          "name": "owner",
          "type": "address"
        },
        {
          "internalType": "uint256",
          "name": "salt",
          "type": "uint256"
        }
      ],
      "name": "getAddress",
      "outputs": [
        {
          "internalType": "address",
          "name": "",
          "type": "address"
        }
      ],
      "stateMutability": "view",
      "type": "function"
    }
  ],
  "bytecode": "0x608060405234801561001057600080fd5b5061110d806100206000396000f3fe608060405234801561001057600080fd5b50600436106100365760003560e01c80638cb84e181461003b578063fb246c521461006b575b600080fd5b61005560048036038101906100509190610287565b61009b565b60405161006291906102d6565b60405180910390f35b61008560048036038101906100809190610287565b61011c565b60405161009291906102d6565b60405180910390f35b60006101148260001b604051806020016100b4906101e1565b6020820181038252601f19601f82011660405250856040516020016100d991906102d6565b6040516020818303038152906040526040516020016100f9929190610362565b604051602081830303815290604052805190602001206101a1565b905092915050565b600080610129848461009b565b905060008173ffffffffffffffffffffffffffffffffffffffff163b9050600081111561015a57819250505061019b565b8360001b8560405161016b906101e1565b61017591906102d6565b8190604051809103906000f5905080158015610195573d6000803e3d6000fd5b50925050505b92915050565b60006101ae8383306101b6565b905092915050565b6000604051836040820152846020820152828152600b810160ff815360558120925050509392505050565b610d518061038783390190565b600080fd5b600073ffffffffffffffffffffffffffffffffffffffff82169050919050565b600061021e826101f3565b9050919050565b61022e81610213565b811461023957600080fd5b50565b60008135905061024b81610225565b92915050565b6000819050919050565b61026481610251565b811461026f57600080fd5b50565b6000813590506102818161025b565b92915050565b6000806040838503121561029e5761029d6101ee565b5b60006102ac8582860161023c565b92505060206102bd85828601610272565b9150509250929050565b6102d081610213565b82525050565b60006020820190506102eb60008301846102c7565b92915050565b600081519050919050565b600081905092915050565b60005b8381101561032557808201518184015260208101905061030a565b60008484015250505050565b600061033c826102f1565b61034681856102fc565b9350610356818560208601610307565b80840191505092915050565b600061036e8285610331565b915061037a8284610331565b9150819050939250505056fe608060405234801561001057600080fd5b50604051610d51380380610d51833981810160405281019061003291906100dc565b806000600c6101000a81548173ffffffffffffffffffffffffffffffffffffffff021916908373ffffffffffffffffffffffffffffffffffffffff16021790555050610109565b600080fd5b600073ffffffffffffffffffffffffffffffffffffffff82169050919050565b60006100a98261007e565b9050919050565b6100b98161009e565b81146100c457600080fd5b50565b6000815190506100d6816100b0565b92915050565b6000602082840312156100f2576100f1610079565b5b6000610100848285016100c7565b91505092915050565b610c39806101186000396000f3fe60806040526004361061004e5760003560e01c806312065fe0146100935780631420d138146100be5780638da5cb5b146100e7578063a9059cbb14610112578063affed0e01461013b5761008e565b3661008e577f543ba50a5eec5e6178218e364b1d0f396157b3c8fa278522c2cb7fd99407d4743334604051610084929190610609565b60405180910390a1005b600080fd5b34801561009f57600080fd5b506100a8610166565b6040516100b59190610632565b60405180910390f35b3480156100ca57600080fd5b506100e560048036038101906100e0919061067c565b61016e565b005b3480156100f357600080fd5b506100fc610403565b60405161010991906106c5565b60405180910390f35b34801561011e57600080fd5b506101396004803603810190610134919061074a565b610429565b005b34801561014757600080fd5b50610150610580565b60405161015d9190610632565b60405180910390f35b600047905090565b6000600c9054906101000a900473ffffffffffffffffffffffffffffffffffffffff1673ffffffffffffffffffffffffffffffffffffffff163373ffffffffffffffffffffffffffffffffffffffff16146101fe576040517f08c379a00000000000000000000000000000000000000000000000000000000081526004016101f59061080d565b60405180910390fd5b60008054906101000a90046bffffffffffffffffffffffff166bffffffffffffffffffffffff1681602001351461026a576040517f08c379a000000000000000000000000000000000000000000000000000000000815260040161026190610879565b60405180910390fd5b3073ffffffffffffffffffffffffffffffffffffffff1681600001602081019061029491906108c5565b73ffffffffffffffffffffffffffffffffffffffff16146102ea576040517f08c379a00000000000000000000000000000000000000000000000000000000081526004016102e19061093e565b60405180910390fd5b60003073ffffffffffffffffffffffffffffffffffffffff16828060600190610313919061096d565b604051610321929190610a0f565b6000604051808303816000865af19150503d806000811461035e576040519150601f19603f3d011682016040523d82523d6000602084013e610363565b606091505b50509050806103a7576040517f08c379a000000000000000000000000000000000000000000000000000000000815260040161039e90610a74565b60405180910390fd5b60008081819054906101000a90046bffffffffffffffffffffffff16809291906103d090610adb565b91906101000a8154816bffffffffffffffffffffffff02191690836bffffffffffffffffffffffff160217905550505050565b6000600c9054906101000a900473ffffffffffffffffffffffffffffffffffffffff1681565b6000600c9054906101000a900473ffffffffffffffffffffffffffffffffffffffff1673ffffffffffffffffffffffffffffffffffffffff163373ffffffffffffffffffffffffffffffffffffffff16146104b9576040517f08c379a00000000000000000000000000000000000000000000000000000000081526004016104b09061080d565b60405180910390fd5b804710156104fc576040517f08c379a00000000000000000000000000000000000000000000000000000000081526004016104f390610b5b565b60405180910390fd5b8173ffffffffffffffffffffffffffffffffffffffff166108fc829081150290604051600060405180830381858888f19350505050158015610542573d6000803e3d6000fd5b507f8c9a4f13b67cb64d7c6aa1ae0c9bf07694af521a28b93e7060020810ab4bc59f8282604051610574929190610bda565b60405180910390a15050565b60008060009054906101000a90046bffffffffffffffffffffffff166bffffffffffffffffffffffff16905090565b600073ffffffffffffffffffffffffffffffffffffffff82169050919050565b60006105da826105af565b9050919050565b6105ea816105cf565b82525050565b6000819050919050565b610603816105f0565b82525050565b600060408201905061061e60008301856105e1565b61062b60208301846105fa565b9392505050565b600060208201905061064760008301846105fa565b92915050565b600080fd5b600080fd5b600080fd5b6000610160828403121561067357610672610657565b5b81905092915050565b6000602082840312156106925761069161064d565b5b600082013567ffffffffffffffff8111156106b0576106af610652565b5b6106bc8482850161065c565b91505092915050565b60006020820190506106da60008301846105e1565b92915050565b60006106eb826105af565b9050919050565b6106fb816106e0565b811461070657600080fd5b50565b600081359050610718816106f2565b92915050565b610727816105f0565b811461073257600080fd5b50565b6000813590506107448161071e565b92915050565b600080604083850312156107615761076061064d565b5b600061076f85828601610709565b925050602061078085828601610735565b9150509250929050565b600082825260208201905092915050565b7f4f6e6c79206f776e65722063616e2063616c6c20746869732066756e6374696f60008201527f6e00000000000000000000000000000000000000000000000000000000000000602082015250565b60006107f760218361078a565b91506108028261079b565b604082019050919050565b60006020820190508181036000830152610826816107ea565b9050919050565b7f496e76616c6964206e6f6e636500000000000000000000000000000000000000600082015250565b6000610863600d8361078a565b915061086e8261082d565b602082019050919050565b6000602082019050818103600083015261089281610856565b9050919050565b6108a2816105cf565b81146108ad57600080fd5b50565b6000813590506108bf81610899565b92915050565b6000602082840312156108db576108da61064d565b5b60006108e9848285016108b0565b91505092915050565b7f496e76616c69642073656e646572000000000000000000000000000000000000600082015250565b6000610928600e8361078a565b9150610933826108f2565b602082019050919050565b600060208201905081810360008301526109578161091b565b9050919050565b600080fd5b600080fd5b600080fd5b6000808335600160200384360303811261098a5761098961095e565b5b80840192508235915067ffffffffffffffff8211156109ac576109ab610963565b5b6020830192506001820236038313156109c8576109c7610968565b5b509250929050565b600081905092915050565b82818337600083830152505050565b60006109f683856109d0565b9350610a038385846109db565b82840190509392505050565b6000610a1c8284866109ea565b91508190509392505050565b7f4f7065726174696f6e206661696c656400000000000000000000000000000000600082015250565b6000610a5e60108361078a565b9150610a6982610a28565b602082019050919050565b60006020820190508181036000830152610a8d81610a51565b9050919050565b7f4e487b7100000000000000000000000000000000000000000000000000000000600052601160045260246000fd5b60006bffffffffffffffffffffffff82169050919050565b6000610ae682610ac3565b91506bffffffffffffffffffffffff8203610b0457610b03610a94565b5b600182019050919050565b7f496e73756666696369656e742062616c616e6365000000000000000000000000600082015250565b6000610b4560148361078a565b9150610b5082610b0f565b602082019050919050565b60006020820190508181036000830152610b7481610b38565b9050919050565b6000819050919050565b6000610ba0610b9b610b96846105af565b610b7b565b6105af565b9050919050565b6000610bb282610b85565b9050919050565b6000610bc482610ba7565b9050919050565b610bd481610bb9565b82525050565b6000604082019050610bef6000830185610bcb565b610bfc60208301846105fa565b939250505056fea2646970667358221220735fdb17d69c09213d477bfc07766c96832f538bb59643ddbe588b408a17227b64736f6c63430008140033a2646970667358221220545ed9c0a3bdb495c4a106db516b58da2717c01ef618e645ebe2d4fb92f75a3964736f6c63430008140033",
  "linkReferences": {},
  "deployedLinkReferences": {}
}